{
  "_format": "hh-sol-artifact-1",
  "contractName": "UnikoNFT",
  "sourceName": "contracts/UnikoNFT.sol",
  "abi": [
    {
      "inputs": [
        {
          "internalType": "string",
          "name": "name",
          "type": "string"
        },
        {
          "internalType": "string",
          "name": "symbol",
          "type": "string"
        },
        {
          "internalType": "string",
          "name": "baseURI",
          "type": "string"
        }
      ],
      "stateMutability": "nonpayable",
      "type": "constructor"
    },
    {
      "inputs": [
        {
          "internalType": "address",
          "name": "sender",
          "type": "address"
        },
        {
          "internalType": "uint256",
          "name": "tokenId",
          "type": "uint256"
        },
        {
          "internalType": "address",
          "name": "owner",
          "type": "address"
        }
      ],
      "name": "ERC721IncorrectOwner",
      "type": "error"
    },
    {
      "inputs": [
        {
          "internalType": "address",
          "name": "operator",
          "type": "address"
        },
        {
          "internalType": "uint256",
          "name": "tokenId",
          "type": "uint256"
        }
      ],
      "name": "ERC721InsufficientApproval",
      "type": "error"
    },
    {
      "inputs": [
        {
          "internalType": "address",
          "name": "approver",
          "type": "address"
        }
      ],
      "name": "ERC721InvalidApprover",
      "type": "error"
    },
    {
      "inputs": [
        {
          "internalType": "address",
          "name": "operator",
          "type": "address"
        }
      ],
      "name": "ERC721InvalidOperator",
      "type": "error"
    },
    {
      "inputs": [
        {
          "internalType": "address",
          "name": "owner",
          "type": "address"
        }
      ],
      "name": "ERC721InvalidOwner",
      "type": "error"
    },
    {
      "inputs": [
        {
          "internalType": "address",
          "name": "receiver",
          "type": "address"
        }
      ],
      "name": "ERC721InvalidReceiver",
      "type": "error"
    },
    {
      "inputs": [
        {
          "internalType": "address",
          "name": "sender",
          "type": "address"
        }
      ],
      "name": "ERC721InvalidSender",
      "type": "error"
    },
    {
      "inputs": [
        {
          "internalType": "uint256",
          "name": "tokenId",
          "type": "uint256"
        }
      ],
      "name": "ERC721NonexistentToken",
      "type": "error"
    },
    {
      "inputs": [
        {
          "internalType": "address",
          "name": "owner",
          "type": "address"
        }
      ],
      "name": "OwnableInvalidOwner",
      "type": "error"
    },
    {
      "inputs": [
        {
          "internalType": "address",
          "name": "account",
          "type": "address"
        }
      ],
      "name": "OwnableUnauthorizedAccount",
      "type": "error"
    },
    {
      "anonymous": false,
      "inputs": [
        {
          "indexed": true,
          "internalType": "address",
          "name": "owner",
          "type": "address"
        },
        {
          "indexed": true,
          "internalType": "address",
          "name": "approved",
          "type": "address"
        },
        {
          "indexed": true,
          "internalType": "uint256",
          "name": "tokenId",
          "type": "uint256"
        }
      ],
      "name": "Approval",
      "type": "event"
    },
    {
      "anonymous": false,
      "inputs": [
        {
          "indexed": true,
          "internalType": "address",
          "name": "owner",
          "type": "address"
        },
        {
          "indexed": true,
          "internalType": "address",
          "name": "operator",
          "type": "address"
        },
        {
          "indexed": false,
          "internalType": "bool",
          "name": "approved",
          "type": "bool"
        }
      ],
      "name": "ApprovalForAll",
      "type": "event"
    },
    {
      "anonymous": false,
      "inputs": [
        {
          "indexed": true,
          "internalType": "address",
          "name": "to",
          "type": "address"
        },
        {
          "indexed": true,
          "internalType": "uint256",
          "name": "tokenId",
          "type": "uint256"
        }
      ],
      "name": "NFTMinted",
      "type": "event"
    },
    {
      "anonymous": false,
      "inputs": [
        {
          "indexed": true,
          "internalType": "address",
          "name": "previousOwner",
          "type": "address"
        },
        {
          "indexed": true,
          "internalType": "address",
          "name": "newOwner",
          "type": "address"
        }
      ],
      "name": "OwnershipTransferred",
      "type": "event"
    },
    {
      "anonymous": false,
      "inputs": [
        {
          "indexed": true,
          "internalType": "address",
          "name": "from",
          "type": "address"
        },
        {
          "indexed": true,
          "internalType": "address",
          "name": "to",
          "type": "address"
        },
        {
          "indexed": true,
          "internalType": "uint256",
          "name": "tokenId",
          "type": "uint256"
        }
      ],
      "name": "Transfer",
      "type": "event"
    },
    {
      "anonymous": false,
      "inputs": [
        {
          "indexed": true,
          "internalType": "address",
          "name": "to",
          "type": "address"
        },
        {
          "indexed": true,
          "internalType": "uint256",
          "name": "tokenId",
          "type": "uint256"
        },
        {
          "indexed": false,
          "internalType": "string",
          "name": "design",
          "type": "string"
        }
      ],
      "name": "UltraRareMinted",
      "type": "event"
    },
    {
      "inputs": [],
      "name": "MAX_SUPPLY",
      "outputs": [
        {
          "internalType": "uint256",
          "name": "",
          "type": "uint256"
        }
      ],
      "stateMutability": "view",
      "type": "function"
    },
    {
      "inputs": [],
      "name": "MINT_PRICE",
      "outputs": [
        {
          "internalType": "uint256",
          "name": "",
          "type": "uint256"
        }
      ],
      "stateMutability": "view",
      "type": "function"
    },
    {
      "inputs": [],
      "name": "ULTRA_RARE_COUNT",
      "outputs": [
        {
          "internalType": "uint256",
          "name": "",
          "type": "uint256"
        }
      ],
      "stateMutability": "view",
      "type": "function"
    },
    {
      "inputs": [
        {
          "internalType": "address",
          "name": "to",
          "type": "address"
        },
        {
          "internalType": "uint256",
          "name": "tokenId",
          "type": "uint256"
        }
      ],
      "name": "approve",
      "outputs": [],
      "stateMutability": "nonpayable",
      "type": "function"
    },
    {
      "inputs": [
        {
          "internalType": "address",
          "name": "owner",
          "type": "address"
        }
      ],
      "name": "balanceOf",
      "outputs": [
        {
          "internalType": "uint256",
          "name": "",
          "type": "uint256"
        }
      ],
      "stateMutability": "view",
      "type": "function"
    },
    {
      "inputs": [
        {
          "internalType": "uint256",
          "name": "tokenId",
          "type": "uint256"
        }
      ],
      "name": "getApproved",
      "outputs": [
        {
          "internalType": "address",
          "name": "",
          "type": "address"
        }
      ],
      "stateMutability": "view",
      "type": "function"
    },
    {
      "inputs": [
        {
          "internalType": "uint256",
          "name": "tokenId",
          "type": "uint256"
        }
      ],
      "name": "getTokenMetadata",
      "outputs": [
        {
          "internalType": "string",
          "name": "",
          "type": "string"
        }
      ],
      "stateMutability": "view",
      "type": "function"
    },
    {
      "inputs": [],
      "name": "getUltraRareCount",
      "outputs": [
        {
          "internalType": "uint256",
          "name": "",
          "type": "uint256"
        }
      ],
      "stateMutability": "view",
      "type": "function"
    },
    {
      "inputs": [
        {
          "internalType": "address",
          "name": "owner",
          "type": "address"
        },
        {
          "internalType": "address",
          "name": "operator",
          "type": "address"
        }
      ],
      "name": "isApprovedForAll",
      "outputs": [
        {
          "internalType": "bool",
          "name": "",
          "type": "bool"
        }
      ],
      "stateMutability": "view",
      "type": "function"
    },
    {
      "inputs": [
        {
          "internalType": "uint256",
          "name": "tokenId",
          "type": "uint256"
        }
      ],
      "name": "isUltraRare",
      "outputs": [
        {
          "internalType": "bool",
          "name": "",
          "type": "bool"
        }
      ],
      "stateMutability": "view",
      "type": "function"
    },
    {
      "inputs": [
        {
          "internalType": "address",
          "name": "to",
          "type": "address"
        },
        {
          "internalType": "string",
          "name": "metadata",
          "type": "string"
        }
      ],
      "name": "mint",
      "outputs": [],
      "stateMutability": "payable",
      "type": "function"
    },
    {
      "inputs": [],
      "name": "name",
      "outputs": [
        {
          "internalType": "string",
          "name": "",
          "type": "string"
        }
      ],
      "stateMutability": "view",
      "type": "function"
    },
    {
      "inputs": [],
      "name": "owner",
      "outputs": [
        {
          "internalType": "address",
          "name": "",
          "type": "address"
        }
      ],
      "stateMutability": "view",
      "type": "function"
    },
    {
      "inputs": [
        {
          "internalType": "uint256",
          "name": "tokenId",
          "type": "uint256"
        }
      ],
      "name": "ownerOf",
      "outputs": [
        {
          "internalType": "address",
          "name": "",
          "type": "address"
        }
      ],
      "stateMutability": "view",
      "type": "function"
    },
    {
      "inputs": [],
      "name": "renounceOwnership",
      "outputs": [],
      "stateMutability": "nonpayable",
      "type": "function"
    },
    {
      "inputs": [
        {
          "internalType": "uint256",
          "name": "tokenId",
          "type": "uint256"
        },
        {
          "internalType": "uint256",
          "name": "salePrice",
          "type": "uint256"
        }
      ],
      "name": "royaltyInfo",
      "outputs": [
        {
          "internalType": "address",
          "name": "receiver",
          "type": "address"
        },
        {
          "internalType": "uint256",
          "name": "royaltyAmount",
          "type": "uint256"
        }
      ],
      "stateMutability": "view",
      "type": "function"
    },
    {
      "inputs": [
        {
          "internalType": "address",
          "name": "from",
          "type": "address"
        },
        {
          "internalType": "address",
          "name": "to",
          "type": "address"
        },
        {
          "internalType": "uint256",
          "name": "tokenId",
          "type": "uint256"
        }
      ],
      "name": "safeTransferFrom",
      "outputs": [],
      "stateMutability": "nonpayable",
      "type": "function"
    },
    {
      "inputs": [
        {
          "internalType": "address",
          "name": "from",
          "type": "address"
        },
        {
          "internalType": "address",
          "name": "to",
          "type": "address"
        },
        {
          "internalType": "uint256",
          "name": "tokenId",
          "type": "uint256"
        },
        {
          "internalType": "bytes",
          "name": "data",
          "type": "bytes"
        }
      ],
      "name": "safeTransferFrom",
      "outputs": [],
      "stateMutability": "nonpayable",
      "type": "function"
    },
    {
      "inputs": [
        {
          "internalType": "address",
          "name": "operator",
          "type": "address"
        },
        {
          "internalType": "bool",
          "name": "approved",
          "type": "bool"
        }
      ],
      "name": "setApprovalForAll",
      "outputs": [],
      "stateMutability": "nonpayable",
      "type": "function"
    },
    {
      "inputs": [
        {
          "internalType": "string",
          "name": "baseURI",
          "type": "string"
        }
      ],
      "name": "setBaseURI",
      "outputs": [],
      "stateMutability": "nonpayable",
      "type": "function"
    },
    {
      "inputs": [
        {
          "internalType": "address",
          "name": "newRecipient",
          "type": "address"
        }
      ],
      "name": "setRoyaltyRecipient",
      "outputs": [],
      "stateMutability": "nonpayable",
      "type": "function"
    },
    {
      "inputs": [
        {
          "internalType": "bytes4",
          "name": "interfaceId",
          "type": "bytes4"
        }
      ],
      "name": "supportsInterface",
      "outputs": [
        {
          "internalType": "bool",
          "name": "",
          "type": "bool"
        }
      ],
      "stateMutability": "view",
      "type": "function"
    },
    {
      "inputs": [],
      "name": "symbol",
      "outputs": [
        {
          "internalType": "string",
          "name": "",
          "type": "string"
        }
      ],
      "stateMutability": "view",
      "type": "function"
    },
    {
      "inputs": [
        {
          "internalType": "uint256",
          "name": "tokenId",
          "type": "uint256"
        }
      ],
      "name": "tokenURI",
      "outputs": [
        {
          "internalType": "string",
          "name": "",
          "type": "string"
        }
      ],
      "stateMutability": "view",
      "type": "function"
    },
    {
      "inputs": [],
      "name": "totalSupply",
      "outputs": [
        {
          "internalType": "uint256",
          "name": "",
          "type": "uint256"
        }
      ],
      "stateMutability": "view",
      "type": "function"
    },
    {
      "inputs": [
        {
          "internalType": "address",
          "name": "from",
          "type": "address"
        },
        {
          "internalType": "address",
          "name": "to",
          "type": "address"
        },
        {
          "internalType": "uint256",
          "name": "tokenId",
          "type": "uint256"
        }
      ],
      "name": "transferFrom",
      "outputs": [],
      "stateMutability": "nonpayable",
      "type": "function"
    },
    {
      "inputs": [
        {
          "internalType": "address",
          "name": "newOwner",
          "type": "address"
        }
      ],
      "name": "transferOwnership",
      "outputs": [],
      "stateMutability": "nonpayable",
      "type": "function"
    },
    {
      "inputs": [],
      "name": "ultraRaresMinted",
      "outputs": [
        {
          "internalType": "uint256",
          "name": "",
          "type": "uint256"
        }
      ],
      "stateMutability": "view",
      "type": "function"
    },
    {
      "inputs": [],
      "name": "withdraw",
      "outputs": [],
      "stateMutability": "nonpayable",
      "type": "function"
    }
  ],
  "bytecode": "0x60806040523480156200001157600080fd5b5060405162002006380380620020068339810160408190526200003491620001d4565b3383836000620000458382620002f4565b506001620000548282620002f4565b5050506001600160a01b0381166200008657604051631e4fbdf760e01b81526000600482015260240160405180910390fd5b6200009181620000bd565b50600a620000a08282620002f4565b5050600980546001600160a01b0319163317905550620003c09050565b600680546001600160a01b038381166001600160a01b0319831681179093556040519116919082907f8be0079c531659141344cd1fd0a4f28419497f9722a3daafe3b4186f6b6457e090600090a35050565b634e487b7160e01b600052604160045260246000fd5b600082601f8301126200013757600080fd5b81516001600160401b03808211156200015457620001546200010f565b604051601f8301601f19908116603f011681019082821181831017156200017f576200017f6200010f565b816040528381526020925086838588010111156200019c57600080fd5b600091505b83821015620001c05785820183015181830184015290820190620001a1565b600093810190920192909252949350505050565b600080600060608486031215620001ea57600080fd5b83516001600160401b03808211156200020257600080fd5b620002108783880162000125565b945060208601519150808211156200022757600080fd5b620002358783880162000125565b935060408601519150808211156200024c57600080fd5b506200025b8682870162000125565b9150509250925092565b600181811c908216806200027a57607f821691505b6020821081036200029b57634e487b7160e01b600052602260045260246000fd5b50919050565b601f821115620002ef57600081815260208120601f850160051c81016020861015620002ca5750805b601f850160051c820191505b81811015620002eb57828155600101620002d6565b5050505b505050565b81516001600160401b038111156200031057620003106200010f565b620003288162000321845462000265565b84620002a1565b602080601f831160018114620003605760008415620003475750858301515b600019600386901b1c1916600185901b178555620002eb565b600085815260208120601f198616915b82811015620003915788860151825594840194600190910190840162000370565b5085821015620003b05787850151600019600388901b60f8161c191681555b5050505050600190811b01905550565b611c3680620003d06000396000f3fe6080604052600436106101c15760003560e01c80636352211e116100f7578063c002d23d11610095578063eb01417711610064578063eb014177146104f1578063eef4e9b814610506578063f2fde38b1461051b578063fd85ff8e1461053b57600080fd5b8063c002d23d14610483578063c87b56dd1461049e578063d0def521146104be578063e985e9c5146104d157600080fd5b80638da5cb5b116100d15780638da5cb5b1461041057806395d89b411461042e578063a22cb46514610443578063b88d4fde1461046357600080fd5b80636352211e146103bb57806370a08231146103db578063715018a6146103fb57600080fd5b80632a55205a1161016457806341e42f301161013e57806341e42f301461033b57806342842e0e1461035b57806355f804b31461037b578063603168011461039b57600080fd5b80632a55205a146102d157806332cb6b0c146103105780633ccfd60b1461032657600080fd5b8063081812fc116101a0578063081812fc14610241578063095ea7b31461027957806318160ddd1461029b57806323b872dd146102b157600080fd5b80620dd72f146101c657806301ffc9a7146101ef57806306fdde031461021f575b600080fd5b3480156101d257600080fd5b506101dc60085481565b6040519081526020015b60405180910390f35b3480156101fb57600080fd5b5061020f61020a3660046115b4565b61055b565b60405190151581526020016101e6565b34801561022b57600080fd5b50610234610586565b6040516101e69190611628565b34801561024d57600080fd5b5061026161025c36600461163b565b610618565b6040516001600160a01b0390911681526020016101e6565b34801561028557600080fd5b50610299610294366004611670565b610641565b005b3480156102a757600080fd5b506101dc60075481565b3480156102bd57600080fd5b506102996102cc36600461169a565b610650565b3480156102dd57600080fd5b506102f16102ec3660046116d6565b6106e0565b604080516001600160a01b0390931683526020830191909152016101e6565b34801561031c57600080fd5b506101dc61271081565b34801561033257600080fd5b50610299610746565b34801561034757600080fd5b506102996103563660046116f8565b61082a565b34801561036757600080fd5b5061029961037636600461169a565b61089e565b34801561038757600080fd5b506102996103963660046117bf565b6108be565b3480156103a757600080fd5b506102346103b636600461163b565b6108d2565b3480156103c757600080fd5b506102616103d636600461163b565b6109a7565b3480156103e757600080fd5b506101dc6103f63660046116f8565b6109b2565b34801561040757600080fd5b506102996109fa565b34801561041c57600080fd5b506006546001600160a01b0316610261565b34801561043a57600080fd5b50610234610a0e565b34801561044f57600080fd5b5061029961045e3660046117f4565b610a1d565b34801561046f57600080fd5b5061029961047e366004611830565b610a28565b34801561048f57600080fd5b506101dc66038d7ea4c6800081565b3480156104aa57600080fd5b506102346104b936600461163b565b610a40565b6102996104cc3660046118ac565b610b53565b3480156104dd57600080fd5b5061020f6104ec3660046118fa565b610d3e565b3480156104fd57600080fd5b506101dc600a81565b34801561051257600080fd5b506008546101dc565b34801561052757600080fd5b506102996105363660046116f8565b610d6c565b34801561054757600080fd5b5061020f61055636600461163b565b610daa565b60006001600160e01b0319821663152a902d60e11b1480610580575061058082610df4565b92915050565b6060600080546105959061192d565b80601f01602080910402602001604051908101604052809291908181526020018280546105c19061192d565b801561060e5780601f106105e35761010080835404028352916020019161060e565b820191906000526020600020905b8154815290600101906020018083116105f157829003601f168201915b5050505050905090565b600061062382610e44565b506000828152600460205260409020546001600160a01b0316610580565b61064c828233610e7d565b5050565b6001600160a01b03821661067f57604051633250574960e11b8152600060048201526024015b60405180910390fd5b600061068c838333610e8a565b9050836001600160a01b0316816001600160a01b0316146106da576040516364283d7b60e01b81526001600160a01b0380861660048301526024820184905282166044820152606401610676565b50505050565b60008281526002602052604081205481906001600160a01b03166107165760405162461bcd60e51b815260040161067690611967565b6009546001600160a01b03166127106107316103e8866119ab565b61073b91906119d8565b915091509250929050565b61074e610f83565b47806107935760405162461bcd60e51b81526020600482015260146024820152734e6f2066756e647320746f20776974686472617760601b6044820152606401610676565b6009546040516000916001600160a01b03169083908381818185875af1925050503d80600081146107e0576040519150601f19603f3d011682016040523d82523d6000602084013e6107e5565b606091505b505090508061064c5760405162461bcd60e51b815260206004820152601160248201527015da5d1a191c985dd85b0819985a5b1959607a1b6044820152606401610676565b610832610f83565b6001600160a01b03811661087c5760405162461bcd60e51b8152602060048201526011602482015270125b9d985b1a59081c9958da5c1a595b9d607a1b6044820152606401610676565b600980546001600160a01b0319166001600160a01b0392909216919091179055565b6108b983838360405180602001604052806000815250610a28565b505050565b6108c6610f83565b600a61064c8282611a32565b6000818152600260205260409020546060906001600160a01b03166109095760405162461bcd60e51b815260040161067690611967565b6000828152600b6020526040902080546109229061192d565b80601f016020809104026020016040519081016040528092919081815260200182805461094e9061192d565b801561099b5780601f106109705761010080835404028352916020019161099b565b820191906000526020600020905b81548152906001019060200180831161097e57829003601f168201915b50505050509050919050565b600061058082610e44565b60006001600160a01b0382166109de576040516322718ad960e21b815260006004820152602401610676565b506001600160a01b031660009081526003602052604090205490565b610a02610f83565b610a0c6000610fb0565b565b6060600180546105959061192d565b61064c338383611002565b610a33848484610650565b6106da33858585856110a1565b6000818152600260205260409020546060906001600160a01b0316610a775760405162461bcd60e51b815260040161067690611967565b6000828152600b602052604081208054610a909061192d565b80601f0160208091040260200160405190810160405280929190818152602001828054610abc9061192d565b8015610b095780601f10610ade57610100808354040283529160200191610b09565b820191906000526020600020905b815481529060010190602001808311610aec57829003601f168201915b50505050509050600081511115610b205792915050565b600a610b2b846111cc565b604051602001610b3c929190611af2565b604051602081830303815290604052915050919050565b61271060075410610b9b5760405162461bcd60e51b815260206004820152601260248201527113585e081cdd5c1c1b1e481c995858da195960721b6044820152606401610676565b66038d7ea4c68000341015610be95760405162461bcd60e51b8152602060048201526014602482015273125b9cdd59999a58da595b9d081c185e5b595b9d60621b6044820152606401610676565b80516020808301919091206000818152600d90925260409091205460ff1615610c545760405162461bcd60e51b815260206004820152601c60248201527f4475706c696361746520747261697473206e6f7420616c6c6f776564000000006044820152606401610676565b6000818152600d60205260408120805460ff191660011790556007805491610c7b83611b79565b9091555050600754610c8d848261125f565b6000818152600b60205260409020610ca58482611a32565b50825115610d025782516020840120610cc1906103e890611b92565b158015610cd05750600a600854105b15610d02576000818152600c60205260408120805460ff191660011790556008805491610cfc83611b79565b91905055505b60405181906001600160a01b038616907f4cc0a9c4a99ddc700de1af2c9f916a7cbfdb71f14801ccff94061ad1ef8a804090600090a350505050565b6001600160a01b03918216600090815260056020908152604080832093909416825291909152205460ff1690565b610d74610f83565b6001600160a01b038116610d9e57604051631e4fbdf760e01b815260006004820152602401610676565b610da781610fb0565b50565b6000818152600260205260408120546001600160a01b0316610dde5760405162461bcd60e51b815260040161067690611967565b506000908152600c602052604090205460ff1690565b60006001600160e01b031982166380ac58cd60e01b1480610e2557506001600160e01b03198216635b5e139f60e01b145b8061058057506301ffc9a760e01b6001600160e01b0319831614610580565b6000818152600260205260408120546001600160a01b03168061058057604051637e27328960e01b815260048101849052602401610676565b6108b98383836001611279565b6000828152600260205260408120546001600160a01b0390811690831615610eb757610eb781848661137f565b6001600160a01b03811615610ef557610ed4600085600080611279565b6001600160a01b038116600090815260036020526040902080546000190190555b6001600160a01b03851615610f24576001600160a01b0385166000908152600360205260409020805460010190555b60008481526002602052604080822080546001600160a01b0319166001600160a01b0389811691821790925591518793918516917fddf252ad1be2c89b69c2b068fc378daa952ba7f163c4a11628f55a4df523b3ef91a4949350505050565b6006546001600160a01b03163314610a0c5760405163118cdaa760e01b8152336004820152602401610676565b600680546001600160a01b038381166001600160a01b0319831681179093556040519116919082907f8be0079c531659141344cd1fd0a4f28419497f9722a3daafe3b4186f6b6457e090600090a35050565b6001600160a01b03821661103457604051630b61174360e31b81526001600160a01b0383166004820152602401610676565b6001600160a01b03838116600081815260056020908152604080832094871680845294825291829020805460ff191686151590811790915591519182527f17307eab39ab6107e8899845ad3d59bd9653f200f220920489ca2b5937696c31910160405180910390a3505050565b6001600160a01b0383163b156111c557604051630a85bd0160e11b81526001600160a01b0384169063150b7a02906110e3908890889087908790600401611ba6565b6020604051808303816000875af192505050801561111e575060408051601f3d908101601f1916820190925261111b91810190611be3565b60015b611187573d80801561114c576040519150601f19603f3d011682016040523d82523d6000602084013e611151565b606091505b50805160000361117f57604051633250574960e11b81526001600160a01b0385166004820152602401610676565b805181602001fd5b6001600160e01b03198116630a85bd0160e11b146111c357604051633250574960e11b81526001600160a01b0385166004820152602401610676565b505b5050505050565b606060006111d9836113e3565b600101905060008167ffffffffffffffff8111156111f9576111f9611713565b6040519080825280601f01601f191660200182016040528015611223576020820181803683370190505b5090508181016020015b600019016f181899199a1a9b1b9c1cb0b131b232b360811b600a86061a8153600a850494508461122d57509392505050565b61064c8282604051806020016040528060008152506114bb565b808061128d57506001600160a01b03821615155b1561134f57600061129d84610e44565b90506001600160a01b038316158015906112c95750826001600160a01b0316816001600160a01b031614155b80156112dc57506112da8184610d3e565b155b156113055760405163a9fbf51f60e01b81526001600160a01b0384166004820152602401610676565b811561134d5783856001600160a01b0316826001600160a01b03167f8c5be1e5ebec7d5bd14f71427d1e84f3dd0314c0f7b2291e5b200ac8c7c3b92560405160405180910390a45b505b5050600090815260046020526040902080546001600160a01b0319166001600160a01b0392909216919091179055565b61138a8383836114d3565b6108b9576001600160a01b0383166113b857604051637e27328960e01b815260048101829052602401610676565b60405163177e802f60e01b81526001600160a01b038316600482015260248101829052604401610676565b60008072184f03e93ff9f4daa797ed6e38ed64bf6a1f0160401b83106114225772184f03e93ff9f4daa797ed6e38ed64bf6a1f0160401b830492506040015b6d04ee2d6d415b85acef8100000000831061144e576d04ee2d6d415b85acef8100000000830492506020015b662386f26fc10000831061146c57662386f26fc10000830492506010015b6305f5e1008310611484576305f5e100830492506008015b612710831061149857612710830492506004015b606483106114aa576064830492506002015b600a83106105805760010192915050565b6114c58383611539565b6108b93360008585856110a1565b60006001600160a01b038316158015906115315750826001600160a01b0316846001600160a01b0316148061150d575061150d8484610d3e565b8061153157506000828152600460205260409020546001600160a01b038481169116145b949350505050565b6001600160a01b03821661156357604051633250574960e11b815260006004820152602401610676565b600061157183836000610e8a565b90506001600160a01b038116156108b9576040516339e3563760e11b815260006004820152602401610676565b6001600160e01b031981168114610da757600080fd5b6000602082840312156115c657600080fd5b81356115d18161159e565b9392505050565b60005b838110156115f35781810151838201526020016115db565b50506000910152565b600081518084526116148160208601602086016115d8565b601f01601f19169290920160200192915050565b6020815260006115d160208301846115fc565b60006020828403121561164d57600080fd5b5035919050565b80356001600160a01b038116811461166b57600080fd5b919050565b6000806040838503121561168357600080fd5b61168c83611654565b946020939093013593505050565b6000806000606084860312156116af57600080fd5b6116b884611654565b92506116c660208501611654565b9150604084013590509250925092565b600080604083850312156116e957600080fd5b50508035926020909101359150565b60006020828403121561170a57600080fd5b6115d182611654565b634e487b7160e01b600052604160045260246000fd5b600067ffffffffffffffff8084111561174457611744611713565b604051601f8501601f19908116603f0116810190828211818310171561176c5761176c611713565b8160405280935085815286868601111561178557600080fd5b858560208301376000602087830101525050509392505050565b600082601f8301126117b057600080fd5b6115d183833560208501611729565b6000602082840312156117d157600080fd5b813567ffffffffffffffff8111156117e857600080fd5b6115318482850161179f565b6000806040838503121561180757600080fd5b61181083611654565b91506020830135801515811461182557600080fd5b809150509250929050565b6000806000806080858703121561184657600080fd5b61184f85611654565b935061185d60208601611654565b925060408501359150606085013567ffffffffffffffff81111561188057600080fd5b8501601f8101871361189157600080fd5b6118a087823560208401611729565b91505092959194509250565b600080604083850312156118bf57600080fd5b6118c883611654565b9150602083013567ffffffffffffffff8111156118e457600080fd5b6118f08582860161179f565b9150509250929050565b6000806040838503121561190d57600080fd5b61191683611654565b915061192460208401611654565b90509250929050565b600181811c9082168061194157607f821691505b60208210810361196157634e487b7160e01b600052602260045260246000fd5b50919050565b602080825260149082015273151bdad95b88191bd95cc81b9bdd08195e1a5cdd60621b604082015260600190565b634e487b7160e01b600052601160045260246000fd5b808202811582820484141761058057610580611995565b634e487b7160e01b600052601260045260246000fd5b6000826119e7576119e76119c2565b500490565b601f8211156108b957600081815260208120601f850160051c81016020861015611a135750805b601f850160051c820191505b818110156111c357828155600101611a1f565b815167ffffffffffffffff811115611a4c57611a4c611713565b611a6081611a5a845461192d565b846119ec565b602080601f831160018114611a955760008415611a7d5750858301515b600019600386901b1c1916600185901b1785556111c3565b600085815260208120601f198616915b82811015611ac457888601518255948401946001909101908401611aa5565b5085821015611ae25787850151600019600388901b60f8161c191681555b5050505050600190811b01905550565b6000808454611b008161192d565b60018281168015611b185760018114611b2d57611b5c565b60ff1984168752821515830287019450611b5c565b8860005260208060002060005b85811015611b535781548a820152908401908201611b3a565b50505082870194505b505050508351611b708183602088016115d8565b01949350505050565b600060018201611b8b57611b8b611995565b5060010190565b600082611ba157611ba16119c2565b500690565b6001600160a01b0385811682528416602082015260408101839052608060608201819052600090611bd9908301846115fc565b9695505050505050565b600060208284031215611bf557600080fd5b81516115d18161159e56fea26469706673582212206d2cce0cb15c921e62139913676f078b2886dbc328d363490e6d0ecfa81040d964736f6c63430008140033",
  "linkReferences": {},
  "deployedLinkReferences": {}
}